{
  "contractName": "DiplomeManager",
  "abi": [
    {
      "inputs": [],
      "stateMutability": "nonpayable",
      "type": "constructor"
    },
    {
      "anonymous": false,
      "inputs": [
        {
          "indexed": false,
          "internalType": "string",
          "name": "_EtudiantName",
          "type": "string"
        },
        {
          "indexed": false,
          "internalType": "string",
          "name": "_DiplomeName",
          "type": "string"
        }
      ],
      "name": "DiplomeAdd",
      "type": "event"
    },
    {
      "anonymous": false,
      "inputs": [
        {
          "indexed": false,
          "internalType": "string",
          "name": "_EtudiantName",
          "type": "string"
        }
      ],
      "name": "EtudiantCreated",
      "type": "event"
    },
    {
      "anonymous": false,
      "inputs": [
        {
          "components": [
            {
              "internalType": "string",
              "name": "diplomeName",
              "type": "string"
            },
            {
              "internalType": "string",
              "name": "dateObtention",
              "type": "string"
            },
            {
              "internalType": "string",
              "name": "etablissement",
              "type": "string"
            }
          ],
          "indexed": false,
          "internalType": "struct DiplomeManager.Diplome[]",
          "name": "_Diplomes",
          "type": "tuple[]"
        }
      ],
      "name": "getDiplomes",
      "type": "event"
    },
    {
      "inputs": [
        {
          "internalType": "address",
          "name": "",
          "type": "address"
        }
      ],
      "name": "Etudiants",
      "outputs": [
        {
          "internalType": "string",
          "name": "_EtudiantName",
          "type": "string"
        }
      ],
      "stateMutability": "view",
      "type": "function",
      "constant": true
    },
    {
      "inputs": [
        {
          "internalType": "address",
          "name": "_EtudiantAddress",
          "type": "address"
        },
        {
          "internalType": "string",
          "name": "_EtudiantName",
          "type": "string"
        }
      ],
      "name": "createEtudiant",
      "outputs": [],
      "stateMutability": "nonpayable",
      "type": "function"
    },
    {
      "inputs": [
        {
          "internalType": "address",
          "name": "_EtudiantAddress",
          "type": "address"
        },
        {
          "internalType": "string",
          "name": "_diplomeName",
          "type": "string"
        },
        {
          "internalType": "string",
          "name": "_dateObtention",
          "type": "string"
        },
        {
          "internalType": "string",
          "name": "_etablissement",
          "type": "string"
        }
      ],
      "name": "addDiplome",
      "outputs": [],
      "stateMutability": "nonpayable",
      "type": "function"
    },
    {
      "inputs": [
        {
          "internalType": "address",
          "name": "_EtudiantAddress",
          "type": "address"
        }
      ],
      "name": "getDiplomesEtudiantLength",
      "outputs": [
        {
          "internalType": "uint256",
          "name": "",
          "type": "uint256"
        }
      ],
      "stateMutability": "view",
      "type": "function",
      "constant": true
    },
    {
      "inputs": [
        {
          "internalType": "address",
          "name": "_EtudiantAddress",
          "type": "address"
        },
        {
          "internalType": "uint256",
          "name": "nbDip",
          "type": "uint256"
        }
      ],
      "name": "getDiplomesEtudiant",
      "outputs": [
        {
          "internalType": "string",
          "name": "",
          "type": "string"
        }
      ],
      "stateMutability": "view",
      "type": "function",
      "constant": true
    },
    {
      "inputs": [
        {
          "internalType": "address",
          "name": "_EtudiantAddress",
          "type": "address"
        }
      ],
      "name": "getEtudiant",
      "outputs": [
        {
          "internalType": "string",
          "name": "",
          "type": "string"
        }
      ],
      "stateMutability": "view",
      "type": "function",
      "constant": true
    }
  ],
  "bytecode": "0x608060405234801561001057600080fd5b5033600160006101000a81548173ffffffffffffffffffffffffffffffffffffffff021916908373ffffffffffffffffffffffffffffffffffffffff160217905550610e84806100616000396000f3fe608060405234801561001057600080fd5b50600436106100625760003560e01c80631157e482146100675780631ab7a7cd146100835780635af231db146100b3578063d8f1ae02146100cf578063df757cb5146100ff578063dfdf85c31461012f575b600080fd5b610081600480360381019061007c919061098c565b61015f565b005b61009d60048036038101906100989190610a1e565b610280565b6040516100aa9190610ae6565b60405180910390f35b6100cd60048036038101906100c89190610b08565b610377565b005b6100e960048036038101906100e49190610bc3565b61056a565b6040516100f69190610bff565b60405180910390f35b61011960048036038101906101149190610bc3565b6105b8565b6040516101269190610ae6565b60405180910390f35b61014960048036038101906101449190610bc3565b61065e565b6040516101569190610ae6565b60405180910390f35b60008060008473ffffffffffffffffffffffffffffffffffffffff1673ffffffffffffffffffffffffffffffffffffffff16815260200190815260200160002060000180546101ad90610c49565b9050146101ef576040517f08c379a00000000000000000000000000000000000000000000000000000000081526004016101e690610cc7565b60405180910390fd5b806000808473ffffffffffffffffffffffffffffffffffffffff1673ffffffffffffffffffffffffffffffffffffffff1681526020019081526020016000206000019080519060200190610244929190610731565b507f8f3554ad8c5263437d3c601075086420ae36de77b6ceac76d84780a956092120816040516102749190610ae6565b60405180910390a15050565b60606000808473ffffffffffffffffffffffffffffffffffffffff1673ffffffffffffffffffffffffffffffffffffffff16815260200190815260200160002060010182815481106102d5576102d4610ce7565b5b906000526020600020906003020160000180546102f190610c49565b80601f016020809104026020016040519081016040528092919081815260200182805461031d90610c49565b801561036a5780601f1061033f5761010080835404028352916020019161036a565b820191906000526020600020905b81548152906001019060200180831161034d57829003601f168201915b5050505050905092915050565b60008060008673ffffffffffffffffffffffffffffffffffffffff1673ffffffffffffffffffffffffffffffffffffffff16815260200190815260200160002060000180546103c590610c49565b905011610407576040517f08c379a00000000000000000000000000000000000000000000000000000000081526004016103fe90610d62565b60405180910390fd5b600060405180606001604052808581526020018481526020018381525090506000808673ffffffffffffffffffffffffffffffffffffffff1673ffffffffffffffffffffffffffffffffffffffff16815260200190815260200160002060010181908060018154018082558091505060019003906000526020600020906003020160009091909190915060008201518160000190805190602001906104ad929190610731565b5060208201518160010190805190602001906104ca929190610731565b5060408201518160020190805190602001906104e7929190610731565b5050507f626b680b199751249984058dc41c346bddc186bc264f18d3c7f6b9fc06e0feca6000808773ffffffffffffffffffffffffffffffffffffffff1673ffffffffffffffffffffffffffffffffffffffff1681526020019081526020016000206000018560405161055b929190610e17565b60405180910390a15050505050565b60008060008373ffffffffffffffffffffffffffffffffffffffff1673ffffffffffffffffffffffffffffffffffffffff168152602001908152602001600020600101805490509050919050565b60006020528060005260406000206000915090508060000180546105db90610c49565b80601f016020809104026020016040519081016040528092919081815260200182805461060790610c49565b80156106545780601f1061062957610100808354040283529160200191610654565b820191906000526020600020905b81548152906001019060200180831161063757829003601f168201915b5050505050905081565b60606000808373ffffffffffffffffffffffffffffffffffffffff1673ffffffffffffffffffffffffffffffffffffffff16815260200190815260200160002060000180546106ac90610c49565b80601f01602080910402602001604051908101604052809291908181526020018280546106d890610c49565b80156107255780601f106106fa57610100808354040283529160200191610725565b820191906000526020600020905b81548152906001019060200180831161070857829003601f168201915b50505050509050919050565b82805461073d90610c49565b90600052602060002090601f01602090048101928261075f57600085556107a6565b82601f1061077857805160ff19168380011785556107a6565b828001600101855582156107a6579182015b828111156107a557825182559160200191906001019061078a565b5b5090506107b391906107b7565b5090565b5b808211156107d05760008160009055506001016107b8565b5090565b6000604051905090565b600080fd5b600080fd5b600073ffffffffffffffffffffffffffffffffffffffff82169050919050565b6000610813826107e8565b9050919050565b61082381610808565b811461082e57600080fd5b50565b6000813590506108408161081a565b92915050565b600080fd5b600080fd5b6000601f19601f8301169050919050565b7f4e487b7100000000000000000000000000000000000000000000000000000000600052604160045260246000fd5b61089982610850565b810181811067ffffffffffffffff821117156108b8576108b7610861565b5b80604052505050565b60006108cb6107d4565b90506108d78282610890565b919050565b600067ffffffffffffffff8211156108f7576108f6610861565b5b61090082610850565b9050602081019050919050565b82818337600083830152505050565b600061092f61092a846108dc565b6108c1565b90508281526020810184848401111561094b5761094a61084b565b5b61095684828561090d565b509392505050565b600082601f83011261097357610972610846565b5b813561098384826020860161091c565b91505092915050565b600080604083850312156109a3576109a26107de565b5b60006109b185828601610831565b925050602083013567ffffffffffffffff8111156109d2576109d16107e3565b5b6109de8582860161095e565b9150509250929050565b6000819050919050565b6109fb816109e8565b8114610a0657600080fd5b50565b600081359050610a18816109f2565b92915050565b60008060408385031215610a3557610a346107de565b5b6000610a4385828601610831565b9250506020610a5485828601610a09565b9150509250929050565b600081519050919050565b600082825260208201905092915050565b60005b83811015610a98578082015181840152602081019050610a7d565b83811115610aa7576000848401525b50505050565b6000610ab882610a5e565b610ac28185610a69565b9350610ad2818560208601610a7a565b610adb81610850565b840191505092915050565b60006020820190508181036000830152610b008184610aad565b905092915050565b60008060008060808587031215610b2257610b216107de565b5b6000610b3087828801610831565b945050602085013567ffffffffffffffff811115610b5157610b506107e3565b5b610b5d8782880161095e565b935050604085013567ffffffffffffffff811115610b7e57610b7d6107e3565b5b610b8a8782880161095e565b925050606085013567ffffffffffffffff811115610bab57610baa6107e3565b5b610bb78782880161095e565b91505092959194509250565b600060208284031215610bd957610bd86107de565b5b6000610be784828501610831565b91505092915050565b610bf9816109e8565b82525050565b6000602082019050610c146000830184610bf0565b92915050565b7f4e487b7100000000000000000000000000000000000000000000000000000000600052602260045260246000fd5b60006002820490506001821680610c6157607f821691505b60208210811415610c7557610c74610c1a565b5b50919050565b7f4c276574756469616e74206578697374652064656a6100000000000000000000600082015250565b6000610cb1601683610a69565b9150610cbc82610c7b565b602082019050919050565b60006020820190508181036000830152610ce081610ca4565b9050919050565b7f4e487b7100000000000000000000000000000000000000000000000000000000600052603260045260246000fd5b7f4c276574756469616e74206e2765786973746520706173000000000000000000600082015250565b6000610d4c601783610a69565b9150610d5782610d16565b602082019050919050565b60006020820190508181036000830152610d7b81610d3f565b9050919050565b60008190508160005260206000209050919050565b60008154610da481610c49565b610dae8186610a69565b94506001821660008114610dc95760018114610ddb57610e0e565b60ff1983168652602086019350610e0e565b610de485610d82565b60005b83811015610e0657815481890152600182019150602081019050610de7565b808801955050505b50505092915050565b60006040820190508181036000830152610e318185610d97565b90508181036020830152610e458184610aad565b9050939250505056fea26469706673582212206348d599e7c6c886e3c9da48d4d637a3d9bc6d799de85fa8e1e8309ff8a83a9164736f6c63430008090033",
  "immutableReferences": {},
  "source": "// SPDX-License-Identifier: MIT\r\npragma solidity ^0.8.9;\r\n\r\ncontract DiplomeManager {\r\n\r\n  event EtudiantCreated(string _EtudiantName);\r\n  event DiplomeAdd(string _EtudiantName, string _DiplomeName);\r\n  event getDiplomes(Diplome[] _Diplomes);\r\n\r\n  struct Diplome {\r\n    string diplomeName;\r\n    string dateObtention;\r\n    string etablissement;\r\n  }\r\n\r\n  struct Etudiant{\r\n    string _EtudiantName;\r\n    Diplome[] _Diplomes;\r\n  }\r\n\r\n  mapping(address => Etudiant) public Etudiants;\r\n\r\n  address owner;\r\n\r\n  constructor() {\r\n    owner = msg.sender;\r\n  }\r\n\r\n  modifier onlyOwner() {\r\n    require(msg.sender == owner, \"Seul le proprio peut faire cela\");\r\n    _;\r\n  }\r\n\r\n  function createEtudiant(address _EtudiantAddress, string memory _EtudiantName) external {\r\n    require(bytes(Etudiants[_EtudiantAddress]._EtudiantName).length == 0, \"L'etudiant existe deja\");\r\n    Etudiants[_EtudiantAddress]._EtudiantName = _EtudiantName;\r\n    emit EtudiantCreated(_EtudiantName);\r\n  }\r\n\r\n  function addDiplome(address _EtudiantAddress, string memory _diplomeName, string memory _dateObtention, string memory _etablissement) external{\r\n      require(bytes(Etudiants[_EtudiantAddress]._EtudiantName).length > 0, \"L'etudiant n'existe pas\");\r\n      Diplome memory newDiplome = Diplome(_diplomeName, _dateObtention, _etablissement);\r\n      Etudiants[_EtudiantAddress]._Diplomes.push(newDiplome);\r\n      emit DiplomeAdd(Etudiants[_EtudiantAddress]._EtudiantName, _diplomeName);\r\n  }\r\n\r\n  //---------------------------------- GETTERS ----------------------------------//\r\n\r\n  function getDiplomesEtudiantLength(address _EtudiantAddress) external view returns (uint){\r\n    return Etudiants[_EtudiantAddress]._Diplomes.length;\r\n  }\r\n\r\n   function getDiplomesEtudiant(address _EtudiantAddress, uint nbDip) external view returns (string memory){\r\n    return Etudiants[_EtudiantAddress]._Diplomes[nbDip].diplomeName;\r\n  }\r\n\r\n  function getEtudiant(address _EtudiantAddress) external view returns (string memory) {\r\n    return Etudiants[_EtudiantAddress]._EtudiantName;\r\n  }\r\n}",
  "sourcePath": "c:\\Users\\hamse\\Desktop\\GitHub\\THYP_22-23_SmartContrat\\contracts\\DiplomeManager.sol",
  "compiler": {
    "name": "solc",
    "version": "0.8.9+commit.e5eed63a.Emscripten.clang"
  },
  "schemaVersion": "3.4.10",
  "updatedAt": "2022-11-30T22:29:05.169Z",
  "networkType": "ethereum",
  "devdoc": {
    "kind": "dev",
    "methods": {},
    "version": 1
  },
  "userdoc": {
    "kind": "user",
    "methods": {},
    "version": 1
  }
}