{
  "contractName": "DiplomeManager",
  "abi": [
    {
      "inputs": [],
      "stateMutability": "nonpayable",
      "type": "constructor"
    },
    {
      "anonymous": false,
      "inputs": [
        {
          "indexed": false,
          "internalType": "string",
          "name": "_EtudiantName",
          "type": "string"
        },
        {
          "indexed": false,
          "internalType": "string",
          "name": "_DiplomeName",
          "type": "string"
        }
      ],
      "name": "DiplomeAdd",
      "type": "event"
    },
    {
      "anonymous": false,
      "inputs": [
        {
          "indexed": false,
          "internalType": "string",
          "name": "_EtudiantName",
          "type": "string"
        }
      ],
      "name": "EtudiantCreated",
      "type": "event"
    },
    {
      "anonymous": false,
      "inputs": [
        {
          "components": [
            {
              "internalType": "string",
              "name": "diplomeName",
              "type": "string"
            },
            {
              "internalType": "string",
              "name": "dateObtention",
              "type": "string"
            },
            {
              "internalType": "string",
              "name": "etablissement",
              "type": "string"
            },
            {
              "internalType": "string",
              "name": "mention",
              "type": "string"
            }
          ],
          "indexed": false,
          "internalType": "struct DiplomeManager.Diplome[]",
          "name": "_Diplomes",
          "type": "tuple[]"
        }
      ],
      "name": "getDiplomes",
      "type": "event"
    },
    {
      "inputs": [
        {
          "internalType": "address",
          "name": "",
          "type": "address"
        }
      ],
      "name": "Etudiants",
      "outputs": [
        {
          "internalType": "string",
          "name": "_EtudiantName",
          "type": "string"
        },
        {
          "internalType": "string",
          "name": "_EtudiantLastName",
          "type": "string"
        },
        {
          "internalType": "string",
          "name": "_EtudiantEmail",
          "type": "string"
        },
        {
          "internalType": "address",
          "name": "_EtudiantAddress",
          "type": "address"
        }
      ],
      "stateMutability": "view",
      "type": "function",
      "constant": true
    },
    {
      "inputs": [
        {
          "internalType": "address",
          "name": "_EtudiantAddress",
          "type": "address"
        },
        {
          "internalType": "string",
          "name": "_EtudiantName",
          "type": "string"
        },
        {
          "internalType": "string",
          "name": "_EtudiantLastName",
          "type": "string"
        },
        {
          "internalType": "string",
          "name": "_EtudiantEmail",
          "type": "string"
        }
      ],
      "name": "createEtudiant",
      "outputs": [
        {
          "internalType": "string",
          "name": "",
          "type": "string"
        }
      ],
      "stateMutability": "nonpayable",
      "type": "function"
    },
    {
      "inputs": [
        {
          "internalType": "address",
          "name": "_EtudiantAddress",
          "type": "address"
        },
        {
          "internalType": "string",
          "name": "_diplomeName",
          "type": "string"
        },
        {
          "internalType": "string",
          "name": "_dateObtention",
          "type": "string"
        },
        {
          "internalType": "string",
          "name": "_etablissement",
          "type": "string"
        },
        {
          "internalType": "string",
          "name": "_mention",
          "type": "string"
        }
      ],
      "name": "addDiplome",
      "outputs": [],
      "stateMutability": "nonpayable",
      "type": "function"
    },
    {
      "inputs": [
        {
          "internalType": "address",
          "name": "_EtudiantAddress",
          "type": "address"
        }
      ],
      "name": "getEtudiantsByAddress",
      "outputs": [
        {
          "components": [
            {
              "internalType": "string",
              "name": "_EtudiantName",
              "type": "string"
            },
            {
              "internalType": "string",
              "name": "_EtudiantLastName",
              "type": "string"
            },
            {
              "internalType": "string",
              "name": "_EtudiantEmail",
              "type": "string"
            },
            {
              "internalType": "address",
              "name": "_EtudiantAddress",
              "type": "address"
            },
            {
              "components": [
                {
                  "internalType": "string",
                  "name": "diplomeName",
                  "type": "string"
                },
                {
                  "internalType": "string",
                  "name": "dateObtention",
                  "type": "string"
                },
                {
                  "internalType": "string",
                  "name": "etablissement",
                  "type": "string"
                },
                {
                  "internalType": "string",
                  "name": "mention",
                  "type": "string"
                }
              ],
              "internalType": "struct DiplomeManager.Diplome[]",
              "name": "_Diplomes",
              "type": "tuple[]"
            }
          ],
          "internalType": "struct DiplomeManager.Etudiant",
          "name": "",
          "type": "tuple"
        }
      ],
      "stateMutability": "view",
      "type": "function",
      "constant": true
    },
    {
      "inputs": [
        {
          "internalType": "address",
          "name": "_EtudiantAddress",
          "type": "address"
        }
      ],
      "name": "getDiplomesEtudiantLength",
      "outputs": [
        {
          "internalType": "uint256",
          "name": "",
          "type": "uint256"
        }
      ],
      "stateMutability": "view",
      "type": "function",
      "constant": true
    },
    {
      "inputs": [
        {
          "internalType": "address",
          "name": "_EtudiantAddress",
          "type": "address"
        },
        {
          "internalType": "uint256",
          "name": "nbDip",
          "type": "uint256"
        }
      ],
      "name": "getDiplomesEtudiant",
      "outputs": [
        {
          "components": [
            {
              "internalType": "string",
              "name": "diplomeName",
              "type": "string"
            },
            {
              "internalType": "string",
              "name": "dateObtention",
              "type": "string"
            },
            {
              "internalType": "string",
              "name": "etablissement",
              "type": "string"
            },
            {
              "internalType": "string",
              "name": "mention",
              "type": "string"
            }
          ],
          "internalType": "struct DiplomeManager.Diplome",
          "name": "",
          "type": "tuple"
        }
      ],
      "stateMutability": "view",
      "type": "function",
      "constant": true
    },
    {
      "inputs": [
        {
          "internalType": "address",
          "name": "_EtudiantAddress",
          "type": "address"
        }
      ],
      "name": "getAllDiplomes",
      "outputs": [
        {
          "components": [
            {
              "internalType": "string",
              "name": "diplomeName",
              "type": "string"
            },
            {
              "internalType": "string",
              "name": "dateObtention",
              "type": "string"
            },
            {
              "internalType": "string",
              "name": "etablissement",
              "type": "string"
            },
            {
              "internalType": "string",
              "name": "mention",
              "type": "string"
            }
          ],
          "internalType": "struct DiplomeManager.Diplome[]",
          "name": "",
          "type": "tuple[]"
        }
      ],
      "stateMutability": "view",
      "type": "function",
      "constant": true
    }
  ],
  "bytecode": "0x608060405234801561001057600080fd5b5033600260006101000a81548173ffffffffffffffffffffffffffffffffffffffff021916908373ffffffffffffffffffffffffffffffffffffffff160217905550611fee806100616000396000f3fe608060405234801561001057600080fd5b506004361061007d5760003560e01c80636e6d92c21161005b5780636e6d92c2146100fe578063a92c062d1461012e578063d8f1ae021461015e578063df757cb51461018e5761007d565b8063098dbabc146100825780631ab7a7cd1461009e57806359aa58a7146100ce575b600080fd5b61009c60048036038101906100979190611604565b6101c1565b005b6100b860048036038101906100b39190611725565b6103db565b6040516100c59190611865565b60405180910390f35b6100e860048036038101906100e39190611887565b6106a0565b6040516100f5919061198c565b60405180910390f35b610118600480360381019061011391906119ae565b610910565b6040516101259190611baf565b60405180910390f35b610148600480360381019061014391906119ae565b610e1c565b6040516101559190611c57565b60405180910390f35b610178600480360381019061017391906119ae565b611105565b6040516101859190611c88565b60405180910390f35b6101a860048036038101906101a391906119ae565b611154565b6040516101b89493929190611cb2565b60405180910390f35b6000600160008773ffffffffffffffffffffffffffffffffffffffff1673ffffffffffffffffffffffffffffffffffffffff168152602001908152602001600020600001805461021090611d3b565b905011610252576040517f08c379a000000000000000000000000000000000000000000000000000000000815260040161024990611db9565b60405180910390fd5b60006040518060800160405280868152602001858152602001848152602001838152509050600160008773ffffffffffffffffffffffffffffffffffffffff1673ffffffffffffffffffffffffffffffffffffffff16815260200190815260200160002060040181908060018154018082558091505060019003906000526020600020906004020160009091909190915060008201518160000190805190602001906102ff92919061133c565b50602082015181600101908051906020019061031c92919061133c565b50604082015181600201908051906020019061033992919061133c565b50606082015181600301908051906020019061035692919061133c565b5050507f626b680b199751249984058dc41c346bddc186bc264f18d3c7f6b9fc06e0feca600160008873ffffffffffffffffffffffffffffffffffffffff1673ffffffffffffffffffffffffffffffffffffffff168152602001908152602001600020600001866040516103cb929190611e6e565b60405180910390a1505050505050565b6103e36113c2565b600160008473ffffffffffffffffffffffffffffffffffffffff1673ffffffffffffffffffffffffffffffffffffffff168152602001908152602001600020600401828154811061043757610436611ea5565b5b906000526020600020906004020160405180608001604052908160008201805461046090611d3b565b80601f016020809104026020016040519081016040528092919081815260200182805461048c90611d3b565b80156104d95780601f106104ae576101008083540402835291602001916104d9565b820191906000526020600020905b8154815290600101906020018083116104bc57829003601f168201915b505050505081526020016001820180546104f290611d3b565b80601f016020809104026020016040519081016040528092919081815260200182805461051e90611d3b565b801561056b5780601f106105405761010080835404028352916020019161056b565b820191906000526020600020905b81548152906001019060200180831161054e57829003601f168201915b5050505050815260200160028201805461058490611d3b565b80601f01602080910402602001604051908101604052809291908181526020018280546105b090611d3b565b80156105fd5780601f106105d2576101008083540402835291602001916105fd565b820191906000526020600020905b8154815290600101906020018083116105e057829003601f168201915b5050505050815260200160038201805461061690611d3b565b80601f016020809104026020016040519081016040528092919081815260200182805461064290611d3b565b801561068f5780601f106106645761010080835404028352916020019161068f565b820191906000526020600020905b81548152906001019060200180831161067257829003601f168201915b505050505081525050905092915050565b60606000600160008773ffffffffffffffffffffffffffffffffffffffff1673ffffffffffffffffffffffffffffffffffffffff16815260200190815260200160002060000180546106f190611d3b565b905014610733576040517f08c379a000000000000000000000000000000000000000000000000000000000815260040161072a90611f20565b60405180910390fd5b83600160008773ffffffffffffffffffffffffffffffffffffffff1673ffffffffffffffffffffffffffffffffffffffff168152602001908152602001600020600001908051906020019061078992919061133c565b5082600160008773ffffffffffffffffffffffffffffffffffffffff1673ffffffffffffffffffffffffffffffffffffffff16815260200190815260200160002060010190805190602001906107e092919061133c565b5081600160008773ffffffffffffffffffffffffffffffffffffffff1673ffffffffffffffffffffffffffffffffffffffff168152602001908152602001600020600201908051906020019061083792919061133c565b5084600160008773ffffffffffffffffffffffffffffffffffffffff1673ffffffffffffffffffffffffffffffffffffffff16815260200190815260200160002060030160006101000a81548173ffffffffffffffffffffffffffffffffffffffff021916908373ffffffffffffffffffffffffffffffffffffffff1602179055506000808154809291906108cb90611f6f565b91905055506040518060400160405280600481526020017f446f6e65000000000000000000000000000000000000000000000000000000008152509050949350505050565b6109186113ea565b600160008373ffffffffffffffffffffffffffffffffffffffff1673ffffffffffffffffffffffffffffffffffffffff1681526020019081526020016000206040518060a001604052908160008201805461097290611d3b565b80601f016020809104026020016040519081016040528092919081815260200182805461099e90611d3b565b80156109eb5780601f106109c0576101008083540402835291602001916109eb565b820191906000526020600020905b8154815290600101906020018083116109ce57829003601f168201915b50505050508152602001600182018054610a0490611d3b565b80601f0160208091040260200160405190810160405280929190818152602001828054610a3090611d3b565b8015610a7d5780601f10610a5257610100808354040283529160200191610a7d565b820191906000526020600020905b815481529060010190602001808311610a6057829003601f168201915b50505050508152602001600282018054610a9690611d3b565b80601f0160208091040260200160405190810160405280929190818152602001828054610ac290611d3b565b8015610b0f5780601f10610ae457610100808354040283529160200191610b0f565b820191906000526020600020905b815481529060010190602001808311610af257829003601f168201915b505050505081526020016003820160009054906101000a900473ffffffffffffffffffffffffffffffffffffffff1673ffffffffffffffffffffffffffffffffffffffff1673ffffffffffffffffffffffffffffffffffffffff16815260200160048201805480602002602001604051908101604052809291908181526020016000905b82821015610e0d5783829060005260206000209060040201604051806080016040529081600082018054610bc690611d3b565b80601f0160208091040260200160405190810160405280929190818152602001828054610bf290611d3b565b8015610c3f5780601f10610c1457610100808354040283529160200191610c3f565b820191906000526020600020905b815481529060010190602001808311610c2257829003601f168201915b50505050508152602001600182018054610c5890611d3b565b80601f0160208091040260200160405190810160405280929190818152602001828054610c8490611d3b565b8015610cd15780601f10610ca657610100808354040283529160200191610cd1565b820191906000526020600020905b815481529060010190602001808311610cb457829003601f168201915b50505050508152602001600282018054610cea90611d3b565b80601f0160208091040260200160405190810160405280929190818152602001828054610d1690611d3b565b8015610d635780601f10610d3857610100808354040283529160200191610d63565b820191906000526020600020905b815481529060010190602001808311610d4657829003601f168201915b50505050508152602001600382018054610d7c90611d3b565b80601f0160208091040260200160405190810160405280929190818152602001828054610da890611d3b565b8015610df55780601f10610dca57610100808354040283529160200191610df5565b820191906000526020600020905b815481529060010190602001808311610dd857829003601f168201915b50505050508152505081526020019060010190610b93565b50505050815250509050919050565b6060600160008373ffffffffffffffffffffffffffffffffffffffff1673ffffffffffffffffffffffffffffffffffffffff168152602001908152602001600020600401805480602002602001604051908101604052809291908181526020016000905b828210156110fa5783829060005260206000209060040201604051806080016040529081600082018054610eb390611d3b565b80601f0160208091040260200160405190810160405280929190818152602001828054610edf90611d3b565b8015610f2c5780601f10610f0157610100808354040283529160200191610f2c565b820191906000526020600020905b815481529060010190602001808311610f0f57829003601f168201915b50505050508152602001600182018054610f4590611d3b565b80601f0160208091040260200160405190810160405280929190818152602001828054610f7190611d3b565b8015610fbe5780601f10610f9357610100808354040283529160200191610fbe565b820191906000526020600020905b815481529060010190602001808311610fa157829003601f168201915b50505050508152602001600282018054610fd790611d3b565b80601f016020809104026020016040519081016040528092919081815260200182805461100390611d3b565b80156110505780601f1061102557610100808354040283529160200191611050565b820191906000526020600020905b81548152906001019060200180831161103357829003601f168201915b5050505050815260200160038201805461106990611d3b565b80601f016020809104026020016040519081016040528092919081815260200182805461109590611d3b565b80156110e25780601f106110b7576101008083540402835291602001916110e2565b820191906000526020600020905b8154815290600101906020018083116110c557829003601f168201915b50505050508152505081526020019060010190610e80565b505050509050919050565b6000600160008373ffffffffffffffffffffffffffffffffffffffff1673ffffffffffffffffffffffffffffffffffffffff168152602001908152602001600020600401805490509050919050565b600160205280600052604060002060009150905080600001805461117790611d3b565b80601f01602080910402602001604051908101604052809291908181526020018280546111a390611d3b565b80156111f05780601f106111c5576101008083540402835291602001916111f0565b820191906000526020600020905b8154815290600101906020018083116111d357829003601f168201915b50505050509080600101805461120590611d3b565b80601f016020809104026020016040519081016040528092919081815260200182805461123190611d3b565b801561127e5780601f106112535761010080835404028352916020019161127e565b820191906000526020600020905b81548152906001019060200180831161126157829003601f168201915b50505050509080600201805461129390611d3b565b80601f01602080910402602001604051908101604052809291908181526020018280546112bf90611d3b565b801561130c5780601f106112e15761010080835404028352916020019161130c565b820191906000526020600020905b8154815290600101906020018083116112ef57829003601f168201915b5050505050908060030160009054906101000a900473ffffffffffffffffffffffffffffffffffffffff16905084565b82805461134890611d3b565b90600052602060002090601f01602090048101928261136a57600085556113b1565b82601f1061138357805160ff19168380011785556113b1565b828001600101855582156113b1579182015b828111156113b0578251825591602001919060010190611395565b5b5090506113be919061142f565b5090565b6040518060800160405280606081526020016060815260200160608152602001606081525090565b6040518060a00160405280606081526020016060815260200160608152602001600073ffffffffffffffffffffffffffffffffffffffff168152602001606081525090565b5b80821115611448576000816000905550600101611430565b5090565b6000604051905090565b600080fd5b600080fd5b600073ffffffffffffffffffffffffffffffffffffffff82169050919050565b600061148b82611460565b9050919050565b61149b81611480565b81146114a657600080fd5b50565b6000813590506114b881611492565b92915050565b600080fd5b600080fd5b6000601f19601f8301169050919050565b7f4e487b7100000000000000000000000000000000000000000000000000000000600052604160045260246000fd5b611511826114c8565b810181811067ffffffffffffffff821117156115305761152f6114d9565b5b80604052505050565b600061154361144c565b905061154f8282611508565b919050565b600067ffffffffffffffff82111561156f5761156e6114d9565b5b611578826114c8565b9050602081019050919050565b82818337600083830152505050565b60006115a76115a284611554565b611539565b9050828152602081018484840111156115c3576115c26114c3565b5b6115ce848285611585565b509392505050565b600082601f8301126115eb576115ea6114be565b5b81356115fb848260208601611594565b91505092915050565b600080600080600060a086880312156116205761161f611456565b5b600061162e888289016114a9565b955050602086013567ffffffffffffffff81111561164f5761164e61145b565b5b61165b888289016115d6565b945050604086013567ffffffffffffffff81111561167c5761167b61145b565b5b611688888289016115d6565b935050606086013567ffffffffffffffff8111156116a9576116a861145b565b5b6116b5888289016115d6565b925050608086013567ffffffffffffffff8111156116d6576116d561145b565b5b6116e2888289016115d6565b9150509295509295909350565b6000819050919050565b611702816116ef565b811461170d57600080fd5b50565b60008135905061171f816116f9565b92915050565b6000806040838503121561173c5761173b611456565b5b600061174a858286016114a9565b925050602061175b85828601611710565b9150509250929050565b600081519050919050565b600082825260208201905092915050565b60005b8381101561179f578082015181840152602081019050611784565b838111156117ae576000848401525b50505050565b60006117bf82611765565b6117c98185611770565b93506117d9818560208601611781565b6117e2816114c8565b840191505092915050565b6000608083016000830151848203600086015261180a82826117b4565b9150506020830151848203602086015261182482826117b4565b9150506040830151848203604086015261183e82826117b4565b9150506060830151848203606086015261185882826117b4565b9150508091505092915050565b6000602082019050818103600083015261187f81846117ed565b905092915050565b600080600080608085870312156118a1576118a0611456565b5b60006118af878288016114a9565b945050602085013567ffffffffffffffff8111156118d0576118cf61145b565b5b6118dc878288016115d6565b935050604085013567ffffffffffffffff8111156118fd576118fc61145b565b5b611909878288016115d6565b925050606085013567ffffffffffffffff81111561192a5761192961145b565b5b611936878288016115d6565b91505092959194509250565b600082825260208201905092915050565b600061195e82611765565b6119688185611942565b9350611978818560208601611781565b611981816114c8565b840191505092915050565b600060208201905081810360008301526119a68184611953565b905092915050565b6000602082840312156119c4576119c3611456565b5b60006119d2848285016114a9565b91505092915050565b6119e481611480565b82525050565b600081519050919050565b600082825260208201905092915050565b6000819050602082019050919050565b60006080830160008301518482036000860152611a3382826117b4565b91505060208301518482036020860152611a4d82826117b4565b91505060408301518482036040860152611a6782826117b4565b91505060608301518482036060860152611a8182826117b4565b9150508091505092915050565b6000611a9a8383611a16565b905092915050565b6000602082019050919050565b6000611aba826119ea565b611ac481856119f5565b935083602082028501611ad685611a06565b8060005b85811015611b125784840389528151611af38582611a8e565b9450611afe83611aa2565b925060208a01995050600181019050611ada565b50829750879550505050505092915050565b600060a0830160008301518482036000860152611b4182826117b4565b91505060208301518482036020860152611b5b82826117b4565b91505060408301518482036040860152611b7582826117b4565b9150506060830151611b8a60608601826119db565b5060808301518482036080860152611ba28282611aaf565b9150508091505092915050565b60006020820190508181036000830152611bc98184611b24565b905092915050565b600082825260208201905092915050565b6000611bed826119ea565b611bf78185611bd1565b935083602082028501611c0985611a06565b8060005b85811015611c455784840389528151611c268582611a8e565b9450611c3183611aa2565b925060208a01995050600181019050611c0d565b50829750879550505050505092915050565b60006020820190508181036000830152611c718184611be2565b905092915050565b611c82816116ef565b82525050565b6000602082019050611c9d6000830184611c79565b92915050565b611cac81611480565b82525050565b60006080820190508181036000830152611ccc8187611953565b90508181036020830152611ce08186611953565b90508181036040830152611cf48185611953565b9050611d036060830184611ca3565b95945050505050565b7f4e487b7100000000000000000000000000000000000000000000000000000000600052602260045260246000fd5b60006002820490506001821680611d5357607f821691505b60208210811415611d6757611d66611d0c565b5b50919050565b7f4c276574756469616e74206e2765786973746520706173000000000000000000600082015250565b6000611da3601783611942565b9150611dae82611d6d565b602082019050919050565b60006020820190508181036000830152611dd281611d96565b9050919050565b60008190508160005260206000209050919050565b60008154611dfb81611d3b565b611e058186611942565b94506001821660008114611e205760018114611e3257611e65565b60ff1983168652602086019350611e65565b611e3b85611dd9565b60005b83811015611e5d57815481890152600182019150602081019050611e3e565b808801955050505b50505092915050565b60006040820190508181036000830152611e888185611dee565b90508181036020830152611e9c8184611953565b90509392505050565b7f4e487b7100000000000000000000000000000000000000000000000000000000600052603260045260246000fd5b7f4c276574756469616e74206578697374652064656a6100000000000000000000600082015250565b6000611f0a601683611942565b9150611f1582611ed4565b602082019050919050565b60006020820190508181036000830152611f3981611efd565b9050919050565b7f4e487b7100000000000000000000000000000000000000000000000000000000600052601160045260246000fd5b6000611f7a826116ef565b91507fffffffffffffffffffffffffffffffffffffffffffffffffffffffffffffffff821415611fad57611fac611f40565b5b60018201905091905056fea2646970667358221220505d11b6d597e572a48a3591f74bf93433c8fc228c4caf4ec5c71714e53a2c2c64736f6c63430008090033",
  "immutableReferences": {},
  "source": "// SPDX-License-Identifier: MIT\r\npragma solidity ^0.8.9;\r\n\r\ncontract DiplomeManager {\r\n\r\n  event EtudiantCreated(string _EtudiantName);\r\n  event DiplomeAdd(string _EtudiantName, string _DiplomeName);\r\n  event getDiplomes(Diplome[] _Diplomes);\r\n\r\n  struct Diplome {\r\n    string diplomeName;\r\n    string dateObtention;\r\n    string etablissement;\r\n    string mention;\r\n  }\r\n\r\n  struct Etudiant{\r\n    string _EtudiantName;\r\n    string _EtudiantLastName;\r\n    string _EtudiantEmail;\r\n    address _EtudiantAddress;\r\n    Diplome[] _Diplomes;\r\n  }\r\n\r\n  uint mapSize;\r\n\r\n  mapping(address => Etudiant) public Etudiants;\r\n\r\n  address owner;\r\n\r\n  constructor() {\r\n    owner = msg.sender;\r\n  }\r\n\r\n  modifier onlyOwner() {\r\n    require(msg.sender == owner, \"Seul le proprio peut faire cela\");\r\n    _;\r\n  }\r\n\r\n  function createEtudiant(address _EtudiantAddress, string memory _EtudiantName, string memory _EtudiantLastName, string memory _EtudiantEmail) external returns (string memory) {\r\n    require(bytes(Etudiants[_EtudiantAddress]._EtudiantName).length == 0, \"L'etudiant existe deja\");\r\n    Etudiants[_EtudiantAddress]._EtudiantName = _EtudiantName;\r\n    Etudiants[_EtudiantAddress]._EtudiantLastName = _EtudiantLastName;\r\n    Etudiants[_EtudiantAddress]._EtudiantEmail = _EtudiantEmail;\r\n    Etudiants[_EtudiantAddress]._EtudiantAddress = _EtudiantAddress;\r\n    mapSize++;\r\n    return \"Done\";\r\n  }\r\n\r\n  function addDiplome(address _EtudiantAddress, string memory _diplomeName, string memory _dateObtention, string memory _etablissement, string memory _mention) external{\r\n      require(bytes(Etudiants[_EtudiantAddress]._EtudiantName).length > 0, \"L'etudiant n'existe pas\");\r\n      Diplome memory newDiplome = Diplome(_diplomeName, _dateObtention, _etablissement,_mention);\r\n      Etudiants[_EtudiantAddress]._Diplomes.push(newDiplome);\r\n      emit DiplomeAdd(Etudiants[_EtudiantAddress]._EtudiantName, _diplomeName);\r\n  }\r\n\r\n  //---------------------------------- GETTERS ----------------------------------//\r\n\r\n  function getEtudiantsByAddress(address _EtudiantAddress) external view returns (Etudiant memory) {\r\n    return Etudiants[_EtudiantAddress];\r\n  }\r\n\r\n  function getDiplomesEtudiantLength(address _EtudiantAddress) external view returns (uint){\r\n    return Etudiants[_EtudiantAddress]._Diplomes.length;\r\n  }\r\n\r\n   function getDiplomesEtudiant(address _EtudiantAddress, uint nbDip) external view returns (Diplome memory){\r\n    return Etudiants[_EtudiantAddress]._Diplomes[nbDip];\r\n  }\r\n\r\n  function getAllDiplomes(address _EtudiantAddress) external view returns (Diplome[] memory){\r\n    return Etudiants[_EtudiantAddress]._Diplomes;\r\n  }\r\n\r\n\r\n}",
  "sourcePath": "c:\\Users\\hamse\\Desktop\\GitHub\\THYP_22-23_SmartContrat\\contracts\\DiplomeManager.sol",
  "compiler": {
    "name": "solc",
    "version": "0.8.9+commit.e5eed63a.Emscripten.clang"
  },
  "schemaVersion": "3.4.10",
  "updatedAt": "2022-12-01T10:36:10.169Z",
  "networkType": "ethereum",
  "devdoc": {
    "kind": "dev",
    "methods": {},
    "version": 1
  },
  "userdoc": {
    "kind": "user",
    "methods": {},
    "version": 1
  }
}