{
  "contractName": "DiplomeManager",
  "abi": [
    {
      "inputs": [],
      "stateMutability": "nonpayable",
      "type": "constructor"
    },
    {
      "anonymous": false,
      "inputs": [
        {
          "indexed": false,
          "internalType": "string",
          "name": "_EtudiantName",
          "type": "string"
        },
        {
          "indexed": false,
          "internalType": "string",
          "name": "_DiplomeName",
          "type": "string"
        }
      ],
      "name": "DiplomeAdd",
      "type": "event"
    },
    {
      "anonymous": false,
      "inputs": [
        {
          "indexed": false,
          "internalType": "string",
          "name": "_EtudiantName",
          "type": "string"
        }
      ],
      "name": "EtudiantCreated",
      "type": "event"
    },
    {
      "anonymous": false,
      "inputs": [
        {
          "components": [
            {
              "internalType": "string",
              "name": "diplomeName",
              "type": "string"
            },
            {
              "internalType": "string",
              "name": "dateObtention",
              "type": "string"
            },
            {
              "internalType": "string",
              "name": "etablissement",
              "type": "string"
            }
          ],
          "indexed": false,
          "internalType": "struct DiplomeManager.Diplome[]",
          "name": "_Diplomes",
          "type": "tuple[]"
        }
      ],
      "name": "getDiplomes",
      "type": "event"
    },
    {
      "inputs": [
        {
          "internalType": "address",
          "name": "",
          "type": "address"
        }
      ],
      "name": "Etudiants",
      "outputs": [
        {
          "internalType": "string",
          "name": "_EtudiantName",
          "type": "string"
        }
      ],
      "stateMutability": "view",
      "type": "function",
      "constant": true
    },
    {
      "inputs": [
        {
          "internalType": "address",
          "name": "_EtudiantAddress",
          "type": "address"
        },
        {
          "internalType": "string",
          "name": "_EtudiantName",
          "type": "string"
        }
      ],
      "name": "createEtudiant",
      "outputs": [],
      "stateMutability": "nonpayable",
      "type": "function"
    },
    {
      "inputs": [
        {
          "internalType": "address",
          "name": "_EtudiantAddress",
          "type": "address"
        },
        {
          "internalType": "string",
          "name": "_diplomeName",
          "type": "string"
        },
        {
          "internalType": "string",
          "name": "_dateObtention",
          "type": "string"
        },
        {
          "internalType": "string",
          "name": "_etablissement",
          "type": "string"
        }
      ],
      "name": "addDiplome",
      "outputs": [],
      "stateMutability": "nonpayable",
      "type": "function"
    },
    {
      "inputs": [
        {
          "internalType": "address",
          "name": "_EtudiantAddress",
          "type": "address"
        }
      ],
      "name": "getDiplomesEtudiant",
      "outputs": [],
      "stateMutability": "nonpayable",
      "type": "function"
    }
  ],
  "bytecode": "0x608060405234801561001057600080fd5b5033600160006101000a81548173ffffffffffffffffffffffffffffffffffffffff021916908373ffffffffffffffffffffffffffffffffffffffff160217905550610eef806100616000396000f3fe608060405234801561001057600080fd5b506004361061004c5760003560e01c80631157e48214610051578063579679fc1461006d5780635af231db14610089578063df757cb5146100a5575b600080fd5b61006b60048036038101906100669190610884565b6100d5565b005b610087600480360381019061008291906108e0565b610286565b005b6100a3600480360381019061009e919061090d565b610300565b005b6100bf60048036038101906100ba91906108e0565b610583565b6040516100cc9190610a50565b60405180910390f35b600160009054906101000a900473ffffffffffffffffffffffffffffffffffffffff1673ffffffffffffffffffffffffffffffffffffffff163373ffffffffffffffffffffffffffffffffffffffff1614610165576040517f08c379a000000000000000000000000000000000000000000000000000000000815260040161015c90610abe565b60405180910390fd5b60008060008473ffffffffffffffffffffffffffffffffffffffff1673ffffffffffffffffffffffffffffffffffffffff16815260200190815260200160002060000180546101b390610b0d565b9050146101f5576040517f08c379a00000000000000000000000000000000000000000000000000000000081526004016101ec90610b8b565b60405180910390fd5b806000808473ffffffffffffffffffffffffffffffffffffffff1673ffffffffffffffffffffffffffffffffffffffff168152602001908152602001600020600001908051906020019061024a929190610629565b507f8f3554ad8c5263437d3c601075086420ae36de77b6ceac76d84780a9560921208160405161027a9190610a50565b60405180910390a15050565b7f9b0366e0f4acf5446b32c2ce48e73c6b174b2773f440d3d8d930bd8e407425d96000808373ffffffffffffffffffffffffffffffffffffffff1673ffffffffffffffffffffffffffffffffffffffff1681526020019081526020016000206001016040516102f59190610d74565b60405180910390a150565b600160009054906101000a900473ffffffffffffffffffffffffffffffffffffffff1673ffffffffffffffffffffffffffffffffffffffff163373ffffffffffffffffffffffffffffffffffffffff1614610390576040517f08c379a000000000000000000000000000000000000000000000000000000000815260040161038790610abe565b60405180910390fd5b60008060008673ffffffffffffffffffffffffffffffffffffffff1673ffffffffffffffffffffffffffffffffffffffff16815260200190815260200160002060000180546103de90610b0d565b905011610420576040517f08c379a000000000000000000000000000000000000000000000000000000000815260040161041790610de2565b60405180910390fd5b600060405180606001604052808581526020018481526020018381525090506000808673ffffffffffffffffffffffffffffffffffffffff1673ffffffffffffffffffffffffffffffffffffffff16815260200190815260200160002060010181908060018154018082558091505060019003906000526020600020906003020160009091909190915060008201518160000190805190602001906104c6929190610629565b5060208201518160010190805190602001906104e3929190610629565b506040820151816002019080519060200190610500929190610629565b5050507f626b680b199751249984058dc41c346bddc186bc264f18d3c7f6b9fc06e0feca6000808773ffffffffffffffffffffffffffffffffffffffff1673ffffffffffffffffffffffffffffffffffffffff16815260200190815260200160002060000185604051610574929190610e82565b60405180910390a15050505050565b60006020528060005260406000206000915090508060000180546105a690610b0d565b80601f01602080910402602001604051908101604052809291908181526020018280546105d290610b0d565b801561061f5780601f106105f45761010080835404028352916020019161061f565b820191906000526020600020905b81548152906001019060200180831161060257829003601f168201915b5050505050905081565b82805461063590610b0d565b90600052602060002090601f016020900481019282610657576000855561069e565b82601f1061067057805160ff191683800117855561069e565b8280016001018555821561069e579182015b8281111561069d578251825591602001919060010190610682565b5b5090506106ab91906106af565b5090565b5b808211156106c85760008160009055506001016106b0565b5090565b6000604051905090565b600080fd5b600080fd5b600073ffffffffffffffffffffffffffffffffffffffff82169050919050565b600061070b826106e0565b9050919050565b61071b81610700565b811461072657600080fd5b50565b60008135905061073881610712565b92915050565b600080fd5b600080fd5b6000601f19601f8301169050919050565b7f4e487b7100000000000000000000000000000000000000000000000000000000600052604160045260246000fd5b61079182610748565b810181811067ffffffffffffffff821117156107b0576107af610759565b5b80604052505050565b60006107c36106cc565b90506107cf8282610788565b919050565b600067ffffffffffffffff8211156107ef576107ee610759565b5b6107f882610748565b9050602081019050919050565b82818337600083830152505050565b6000610827610822846107d4565b6107b9565b90508281526020810184848401111561084357610842610743565b5b61084e848285610805565b509392505050565b600082601f83011261086b5761086a61073e565b5b813561087b848260208601610814565b91505092915050565b6000806040838503121561089b5761089a6106d6565b5b60006108a985828601610729565b925050602083013567ffffffffffffffff8111156108ca576108c96106db565b5b6108d685828601610856565b9150509250929050565b6000602082840312156108f6576108f56106d6565b5b600061090484828501610729565b91505092915050565b60008060008060808587031215610927576109266106d6565b5b600061093587828801610729565b945050602085013567ffffffffffffffff811115610956576109556106db565b5b61096287828801610856565b935050604085013567ffffffffffffffff811115610983576109826106db565b5b61098f87828801610856565b925050606085013567ffffffffffffffff8111156109b0576109af6106db565b5b6109bc87828801610856565b91505092959194509250565b600081519050919050565b600082825260208201905092915050565b60005b83811015610a025780820151818401526020810190506109e7565b83811115610a11576000848401525b50505050565b6000610a22826109c8565b610a2c81856109d3565b9350610a3c8185602086016109e4565b610a4581610748565b840191505092915050565b60006020820190508181036000830152610a6a8184610a17565b905092915050565b7f5365756c206c652070726f7072696f20706575742066616972652063656c6100600082015250565b6000610aa8601f836109d3565b9150610ab382610a72565b602082019050919050565b60006020820190508181036000830152610ad781610a9b565b9050919050565b7f4e487b7100000000000000000000000000000000000000000000000000000000600052602260045260246000fd5b60006002820490506001821680610b2557607f821691505b60208210811415610b3957610b38610ade565b5b50919050565b7f4c276574756469616e74206578697374652064656a6100000000000000000000600082015250565b6000610b756016836109d3565b9150610b8082610b3f565b602082019050919050565b60006020820190508181036000830152610ba481610b68565b9050919050565b600081549050919050565b600082825260208201905092915050565b60008190508160005260206000209050919050565b600082825260208201905092915050565b60008190508160005260206000209050919050565b60008154610c0f81610b0d565b610c198186610bdc565b94506001821660008114610c345760018114610c4657610c79565b60ff1983168652602086019350610c79565b610c4f85610bed565b60005b83811015610c7157815481890152600182019150602081019050610c52565b808801955050505b50505092915050565b60006060830160008084018583036000870152610c9f8382610c02565b925050600184018583036020870152610cb88382610c02565b925050600284018583036040870152610cd18382610c02565b925050819250505092915050565b6000610ceb8383610c82565b905092915050565b6000600382019050919050565b6000610d0b82610bab565b610d158185610bb6565b935083602082028501610d2785610bc7565b8060005b85811015610d6257848403895281610d438582610cdf565b9450610d4e83610cf3565b925060208a01995050600181019050610d2b565b50829750879550505050505092915050565b60006020820190508181036000830152610d8e8184610d00565b905092915050565b7f4c276574756469616e74206e2765786973746520706173000000000000000000600082015250565b6000610dcc6017836109d3565b9150610dd782610d96565b602082019050919050565b60006020820190508181036000830152610dfb81610dbf565b9050919050565b60008154610e0f81610b0d565b610e1981866109d3565b94506001821660008114610e345760018114610e4657610e79565b60ff1983168652602086019350610e79565b610e4f85610bed565b60005b83811015610e7157815481890152600182019150602081019050610e52565b808801955050505b50505092915050565b60006040820190508181036000830152610e9c8185610e02565b90508181036020830152610eb08184610a17565b9050939250505056fea264697066735822122036d34c49e2a8fb231f25c6f37d0021424c07952878b9179f89cf5a0ea963241b64736f6c63430008090033",
  "immutableReferences": {},
  "source": "// SPDX-License-Identifier: MIT\r\npragma solidity ^0.8.9;\r\n\r\ncontract DiplomeManager {\r\n\r\n  event EtudiantCreated(string _EtudiantName);\r\n  event DiplomeAdd(string _EtudiantName, string _DiplomeName);\r\n  event getDiplomes(Diplome[] _Diplomes);\r\n\r\n  struct Diplome {\r\n    // string nom;\r\n    // string prenom;\r\n    // string dateNaissance;\r\n    string diplomeName;\r\n    string dateObtention;\r\n    string etablissement;\r\n    // string adresse;\r\n  }\r\n\r\n  struct Etudiant{\r\n    string _EtudiantName;\r\n    Diplome[] _Diplomes;\r\n  }\r\n\r\n  mapping(address => Etudiant) public Etudiants;\r\n\r\n  address owner;\r\n\r\n  constructor() {\r\n    owner = msg.sender;\r\n  }\r\n\r\n  modifier onlyOwner() {\r\n    require(msg.sender == owner, \"Seul le proprio peut faire cela\");\r\n    _;\r\n  }\r\n\r\n  function createEtudiant(address _EtudiantAddress, string memory _EtudiantName) external onlyOwner {\r\n    require(bytes(Etudiants[_EtudiantAddress]._EtudiantName).length == 0, \"L'etudiant existe deja\");\r\n    Etudiants[_EtudiantAddress]._EtudiantName = _EtudiantName;\r\n    emit EtudiantCreated(_EtudiantName);\r\n  }\r\n\r\n  function addDiplome(address _EtudiantAddress, string memory _diplomeName, string memory _dateObtention, string memory _etablissement) external onlyOwner{\r\n      require(bytes(Etudiants[_EtudiantAddress]._EtudiantName).length > 0, \"L'etudiant n'existe pas\");\r\n      Diplome memory newDiplome = Diplome(_diplomeName, _dateObtention, _etablissement);\r\n      Etudiants[_EtudiantAddress]._Diplomes.push(newDiplome);\r\n      emit DiplomeAdd(Etudiants[_EtudiantAddress]._EtudiantName, _diplomeName);\r\n  }\r\n\r\n   function getDiplomesEtudiant(address _EtudiantAddress) external {\r\n    emit getDiplomes(Etudiants[_EtudiantAddress]._Diplomes);\r\n  }\r\n\r\n}",
  "sourcePath": "c:\\Users\\hamse\\Desktop\\GitHub\\THYP_22-23_SmartContrat\\contracts\\DiplomeManager.sol",
  "compiler": {
    "name": "solc",
    "version": "0.8.9+commit.e5eed63a.Emscripten.clang"
  },
  "schemaVersion": "3.4.10",
  "updatedAt": "2022-11-27T16:04:32.713Z",
  "networkType": "ethereum",
  "devdoc": {
    "kind": "dev",
    "methods": {},
    "version": 1
  },
  "userdoc": {
    "kind": "user",
    "methods": {},
    "version": 1
  }
}